{
  "_format": "hh-sol-artifact-1",
  "contractName": "Polls",
  "sourceName": "contracts/Polls.sol",
  "abi": [
    {
      "inputs": [],
      "stateMutability": "nonpayable",
      "type": "constructor"
    },
    {
      "anonymous": false,
      "inputs": [
        {
          "indexed": true,
          "internalType": "address",
          "name": "creator",
          "type": "address"
        },
        {
          "indexed": false,
          "internalType": "string",
          "name": "title",
          "type": "string"
        },
        {
          "indexed": false,
          "internalType": "uint256",
          "name": "pollId",
          "type": "uint256"
        }
      ],
      "name": "NewPollCreated",
      "type": "event"
    },
    {
      "inputs": [
        {
          "internalType": "uint256",
          "name": "secondsToExpiry",
          "type": "uint256"
        },
        {
          "internalType": "string",
          "name": "title",
          "type": "string"
        },
        {
          "internalType": "string[]",
          "name": "options",
          "type": "string[]"
        }
      ],
      "name": "createPoll",
      "outputs": [],
      "stateMutability": "nonpayable",
      "type": "function"
    },
    {
      "inputs": [
        {
          "internalType": "uint256",
          "name": "pollId",
          "type": "uint256"
        }
      ],
      "name": "getOptionsDetails",
      "outputs": [
        {
          "internalType": "uint256[]",
          "name": "",
          "type": "uint256[]"
        },
        {
          "internalType": "string[]",
          "name": "",
          "type": "string[]"
        }
      ],
      "stateMutability": "view",
      "type": "function"
    },
    {
      "inputs": [],
      "name": "getPollsDetails",
      "outputs": [
        {
          "internalType": "uint256[]",
          "name": "",
          "type": "uint256[]"
        },
        {
          "internalType": "string[]",
          "name": "",
          "type": "string[]"
        },
        {
          "internalType": "address[]",
          "name": "",
          "type": "address[]"
        },
        {
          "internalType": "uint256[]",
          "name": "",
          "type": "uint256[]"
        },
        {
          "internalType": "bool[]",
          "name": "",
          "type": "bool[]"
        }
      ],
      "stateMutability": "view",
      "type": "function"
    },
    {
      "inputs": [],
      "name": "getTotalPolls",
      "outputs": [
        {
          "internalType": "uint256",
          "name": "",
          "type": "uint256"
        }
      ],
      "stateMutability": "view",
      "type": "function"
    },
    {
      "inputs": [
        {
          "internalType": "address",
          "name": "",
          "type": "address"
        },
        {
          "internalType": "uint256",
          "name": "",
          "type": "uint256"
        }
      ],
      "name": "hasVotedOnPoll",
      "outputs": [
        {
          "internalType": "bool",
          "name": "",
          "type": "bool"
        }
      ],
      "stateMutability": "view",
      "type": "function"
    },
    {
      "inputs": [
        {
          "internalType": "uint256",
          "name": "",
          "type": "uint256"
        },
        {
          "internalType": "uint256",
          "name": "",
          "type": "uint256"
        }
      ],
      "name": "optionMapping",
      "outputs": [
        {
          "internalType": "string",
          "name": "title",
          "type": "string"
        },
        {
          "internalType": "uint256",
          "name": "voteCount",
          "type": "uint256"
        }
      ],
      "stateMutability": "view",
      "type": "function"
    },
    {
      "inputs": [
        {
          "internalType": "uint256",
          "name": "",
          "type": "uint256"
        }
      ],
      "name": "polls",
      "outputs": [
        {
          "internalType": "string",
          "name": "title",
          "type": "string"
        },
        {
          "internalType": "uint256",
          "name": "expiryTime",
          "type": "uint256"
        },
        {
          "internalType": "address",
          "name": "proposer",
          "type": "address"
        }
      ],
      "stateMutability": "view",
      "type": "function"
    },
    {
      "inputs": [
        {
          "internalType": "uint256",
          "name": "pollId",
          "type": "uint256"
        },
        {
          "internalType": "uint256",
          "name": "optionNo",
          "type": "uint256"
        }
      ],
      "name": "voteOnActivePoll",
      "outputs": [],
      "stateMutability": "nonpayable",
      "type": "function"
    }
  ],
  "bytecode": "0x608060405234801561001057600080fd5b50611df2806100206000396000f3fe608060405234801561001057600080fd5b50600436106100885760003560e01c80638d61ff9c1161005b5780638d61ff9c146101295780639eca06b81461014b578063ac2f00741461017b578063af24dbf4146101ad57610088565b80630c9ef9a21461008d5780633ef87d54146100a95780636b278be9146100c7578063797282dd146100f8575b600080fd5b6100a760048036038101906100a291906113c8565b6101c9565b005b6100b1610431565b6040516100be91906119dc565b60405180910390f35b6100e160048036038101906100dc919061139f565b61043d565b6040516100ef929190611846565b60405180910390f35b610112600480360381019061010d9190611447565b610787565b60405161012092919061190e565b60405180910390f35b610131610850565b60405161014295949392919061187d565b60405180910390f35b61016560048036038101906101609190611363565b610e7b565b60405161017291906118f3565b60405180910390f35b6101956004803603810190610190919061139f565b610eaa565b6040516101a49392919061193e565b60405180910390f35b6101c760048036038101906101c29190611447565b610f8c565b005b82610e10111580156101de575062093a808311155b61021d576040517f08c379a0000000000000000000000000000000000000000000000000000000008152600401610214906119bc565b60405180910390fd5b6000610227610431565b905060005b82518110156103035760016000838152602001908152602001600020604051806040016040528085848151811061028c577f4e487b7100000000000000000000000000000000000000000000000000000000600052603260045260246000fd5b602002602001015181526020016000815250908060018154018082558091505060019003906000526020600020906002020160009091909190915060008201518160000190805190602001906102e39291906111a7565b5060208201518160010155505080806102fb90611ca7565b91505061022c565b506000604051806060016040528085815260200186426103239190611b95565b81526020013373ffffffffffffffffffffffffffffffffffffffff16815250908060018154018082558091505060019003906000526020600020906003020160009091909190915060008201518160000190805190602001906103879291906111a7565b506020820151816001015560408201518160020160006101000a81548173ffffffffffffffffffffffffffffffffffffffff021916908373ffffffffffffffffffffffffffffffffffffffff16021790555050503373ffffffffffffffffffffffffffffffffffffffff167f4bc29c7218044e3733261712f01ecd16c9e6f46765bdb44057333734c8fd2bb2848360405161042392919061190e565b60405180910390a250505050565b60008080549050905090565b606080600060016000858152602001908152602001600020805480602002602001604051908101604052809291908181526020016000905b8282101561054357838290600052602060002090600202016040518060400160405290816000820180546104a890611c75565b80601f01602080910402602001604051908101604052809291908181526020018280546104d490611c75565b80156105215780601f106104f657610100808354040283529160200191610521565b820191906000526020600020905b81548152906001019060200180831161050457829003601f168201915b5050505050815260200160018201548152505081526020019060010190610475565b50505050905060008151905060008163ffffffff1667ffffffffffffffff811115610597577f4e487b7100000000000000000000000000000000000000000000000000000000600052604160045260246000fd5b6040519080825280602002602001820160405280156105c55781602001602082028036833780820191505090505b50905060008263ffffffff1667ffffffffffffffff811115610610577f4e487b7100000000000000000000000000000000000000000000000000000000600052604160045260246000fd5b60405190808252806020026020018201604052801561064357816020015b606081526020019060019003908161062e5790505b50905060005b838110156107775784818151811061068a577f4e487b7100000000000000000000000000000000000000000000000000000000600052603260045260246000fd5b6020026020010151602001518382815181106106cf577f4e487b7100000000000000000000000000000000000000000000000000000000600052603260045260246000fd5b602002602001018181525050848181518110610714577f4e487b7100000000000000000000000000000000000000000000000000000000600052603260045260246000fd5b602002602001015160000151828281518110610759577f4e487b7100000000000000000000000000000000000000000000000000000000600052603260045260246000fd5b6020026020010181905250808061076f90611ca7565b915050610649565b5081819550955050505050915091565b600160205281600052604060002081815481106107a357600080fd5b9060005260206000209060020201600091509150508060000180546107c790611c75565b80601f01602080910402602001604051908101604052809291908181526020018280546107f390611c75565b80156108405780601f1061081557610100808354040283529160200191610840565b820191906000526020600020905b81548152906001019060200180831161082357829003601f168201915b5050505050908060010154905082565b60608060608060606000610862610431565b905060008163ffffffff1667ffffffffffffffff8111156108ac577f4e487b7100000000000000000000000000000000000000000000000000000000600052604160045260246000fd5b6040519080825280602002602001820160405280156108da5781602001602082028036833780820191505090505b50905060008263ffffffff1667ffffffffffffffff811115610925577f4e487b7100000000000000000000000000000000000000000000000000000000600052604160045260246000fd5b60405190808252806020026020018201604052801561095857816020015b60608152602001906001900390816109435790505b50905060008363ffffffff1667ffffffffffffffff8111156109a3577f4e487b7100000000000000000000000000000000000000000000000000000000600052604160045260246000fd5b6040519080825280602002602001820160405280156109d15781602001602082028036833780820191505090505b50905060008463ffffffff1667ffffffffffffffff811115610a1c577f4e487b7100000000000000000000000000000000000000000000000000000000600052604160045260246000fd5b604051908082528060200260200182016040528015610a4a5781602001602082028036833780820191505090505b50905060008563ffffffff1667ffffffffffffffff811115610a95577f4e487b7100000000000000000000000000000000000000000000000000000000600052604160045260246000fd5b604051908082528060200260200182016040528015610ac35781602001602082028036833780820191505090505b50905060005b600080549050811015610e5e5780868281518110610b10577f4e487b7100000000000000000000000000000000000000000000000000000000600052603260045260246000fd5b60200260200101818152505060008181548110610b56577f4e487b7100000000000000000000000000000000000000000000000000000000600052603260045260246000fd5b90600052602060002090600302016000018054610b7290611c75565b80601f0160208091040260200160405190810160405280929190818152602001828054610b9e90611c75565b8015610beb5780601f10610bc057610100808354040283529160200191610beb565b820191906000526020600020905b815481529060010190602001808311610bce57829003601f168201915b5050505050858281518110610c29577f4e487b7100000000000000000000000000000000000000000000000000000000600052603260045260246000fd5b602002602001018190525060008181548110610c6e577f4e487b7100000000000000000000000000000000000000000000000000000000600052603260045260246000fd5b906000526020600020906003020160020160009054906101000a900473ffffffffffffffffffffffffffffffffffffffff16848281518110610cd9577f4e487b7100000000000000000000000000000000000000000000000000000000600052603260045260246000fd5b602002602001019073ffffffffffffffffffffffffffffffffffffffff16908173ffffffffffffffffffffffffffffffffffffffff168152505060008181548110610d4d577f4e487b7100000000000000000000000000000000000000000000000000000000600052603260045260246000fd5b906000526020600020906003020160010154838281518110610d98577f4e487b7100000000000000000000000000000000000000000000000000000000600052603260045260246000fd5b60200260200101818152505060008181548110610dde577f4e487b7100000000000000000000000000000000000000000000000000000000600052603260045260246000fd5b9060005260206000209060030201600101544210610dfd576000610e00565b60015b828281518110610e39577f4e487b7100000000000000000000000000000000000000000000000000000000600052603260045260246000fd5b6020026020010190151590811515815250508080610e5690611ca7565b915050610ac9565b5084848484849a509a509a509a509a505050505050509091929394565b60026020528160005260406000206020528060005260406000206000915091509054906101000a900460ff1681565b60008181548110610eba57600080fd5b9060005260206000209060030201600091509050806000018054610edd90611c75565b80601f0160208091040260200160405190810160405280929190818152602001828054610f0990611c75565b8015610f565780601f10610f2b57610100808354040283529160200191610f56565b820191906000526020600020905b815481529060010190602001808311610f3957829003601f168201915b5050505050908060010154908060020160009054906101000a900473ffffffffffffffffffffffffffffffffffffffff16905083565b6000808381548110610fc7577f4e487b7100000000000000000000000000000000000000000000000000000000600052603260045260246000fd5b906000526020600020906003020190508060010154421061101d576040517f08c379a00000000000000000000000000000000000000000000000000000000081526004016110149061197c565b60405180910390fd5b60001515600260003373ffffffffffffffffffffffffffffffffffffffff1673ffffffffffffffffffffffffffffffffffffffff168152602001908152602001600020600085815260200190815260200160002060009054906101000a900460ff161515146110c1576040517f08c379a00000000000000000000000000000000000000000000000000000000081526004016110b89061199c565b60405180910390fd5b6001600260003373ffffffffffffffffffffffffffffffffffffffff1673ffffffffffffffffffffffffffffffffffffffff168152602001908152602001600020600085815260200190815260200160002060006101000a81548160ff0219169083151502179055506000600160008581526020019081526020016000208381548110611177577f4e487b7100000000000000000000000000000000000000000000000000000000600052603260045260246000fd5b9060005260206000209060020201905080600101600081548092919061119c90611ca7565b919050555050505050565b8280546111b390611c75565b90600052602060002090601f0160209004810192826111d5576000855561121c565b82601f106111ee57805160ff191683800117855561121c565b8280016001018555821561121c579182015b8281111561121b578251825591602001919060010190611200565b5b509050611229919061122d565b5090565b5b8082111561124657600081600090555060010161122e565b5090565b600061125d61125884611a28565b6119f7565b9050808382526020820190508260005b8581101561129d57813585016112838882611324565b84526020840193506020830192505060018101905061126d565b5050509392505050565b60006112ba6112b584611a54565b6119f7565b9050828152602081018484840111156112d257600080fd5b6112dd848285611c33565b509392505050565b6000813590506112f481611d8e565b92915050565b600082601f83011261130b57600080fd5b813561131b84826020860161124a565b91505092915050565b600082601f83011261133557600080fd5b81356113458482602086016112a7565b91505092915050565b60008135905061135d81611da5565b92915050565b6000806040838503121561137657600080fd5b6000611384858286016112e5565b92505060206113958582860161134e565b9150509250929050565b6000602082840312156113b157600080fd5b60006113bf8482850161134e565b91505092915050565b6000806000606084860312156113dd57600080fd5b60006113eb8682870161134e565b935050602084013567ffffffffffffffff81111561140857600080fd5b61141486828701611324565b925050604084013567ffffffffffffffff81111561143157600080fd5b61143d868287016112fa565b9150509250925092565b6000806040838503121561145a57600080fd5b60006114688582860161134e565b92505060206114798582860161134e565b9150509250929050565b600061148f83836114df565b60208301905092915050565b60006114a7838361168c565b60208301905092915050565b60006114bf83836116aa565b905092915050565b60006114d38383611828565b60208301905092915050565b6114e881611beb565b82525050565b6114f781611beb565b82525050565b600061150882611ac4565b6115128185611b2f565b935061151d83611a84565b8060005b8381101561154e5781516115358882611483565b975061154083611afb565b925050600181019050611521565b5085935050505092915050565b600061156682611acf565b6115708185611b40565b935061157b83611a94565b8060005b838110156115ac578151611593888261149b565b975061159e83611b08565b92505060018101905061157f565b5085935050505092915050565b60006115c482611ada565b6115ce8185611b51565b9350836020820285016115e085611aa4565b8060005b8581101561161c57848403895281516115fd85826114b3565b945061160883611b15565b925060208a019950506001810190506115e4565b50829750879550505050505092915050565b600061163982611ae5565b6116438185611b62565b935061164e83611ab4565b8060005b8381101561167f57815161166688826114c7565b975061167183611b22565b925050600181019050611652565b5085935050505092915050565b61169581611bfd565b82525050565b6116a481611bfd565b82525050565b60006116b582611af0565b6116bf8185611b73565b93506116cf818560208601611c42565b6116d881611d7d565b840191505092915050565b60006116ee82611af0565b6116f88185611b84565b9350611708818560208601611c42565b61171181611d7d565b840191505092915050565b6000611729601183611b84565b91507f506f6c6c2068617320657870697265642e0000000000000000000000000000006000830152602082019050919050565b6000611769602b83611b84565b91507f557365722068617320616c726561647920766f746564206f6e2074686520637560008301527f7272656e7420706f6c6c2e0000000000000000000000000000000000000000006020830152604082019050919050565b60006117cf602883611b84565b91507f506f6c6c732073686f756c64206c6173742066726f6d203120686f757220746f60008301527f2031207765656b2e0000000000000000000000000000000000000000000000006020830152604082019050919050565b61183181611c29565b82525050565b61184081611c29565b82525050565b60006040820190508181036000830152611860818561162e565b9050818103602083015261187481846115b9565b90509392505050565b600060a0820190508181036000830152611897818861162e565b905081810360208301526118ab81876115b9565b905081810360408301526118bf81866114fd565b905081810360608301526118d3818561162e565b905081810360808301526118e7818461155b565b90509695505050505050565b6000602082019050611908600083018461169b565b92915050565b6000604082019050818103600083015261192881856116e3565b90506119376020830184611837565b9392505050565b6000606082019050818103600083015261195881866116e3565b90506119676020830185611837565b61197460408301846114ee565b949350505050565b600060208201905081810360008301526119958161171c565b9050919050565b600060208201905081810360008301526119b58161175c565b9050919050565b600060208201905081810360008301526119d5816117c2565b9050919050565b60006020820190506119f16000830184611837565b92915050565b6000604051905081810181811067ffffffffffffffff82111715611a1e57611a1d611d4e565b5b8060405250919050565b600067ffffffffffffffff821115611a4357611a42611d4e565b5b602082029050602081019050919050565b600067ffffffffffffffff821115611a6f57611a6e611d4e565b5b601f19601f8301169050602081019050919050565b6000819050602082019050919050565b6000819050602082019050919050565b6000819050602082019050919050565b6000819050602082019050919050565b600081519050919050565b600081519050919050565b600081519050919050565b600081519050919050565b600081519050919050565b6000602082019050919050565b6000602082019050919050565b6000602082019050919050565b6000602082019050919050565b600082825260208201905092915050565b600082825260208201905092915050565b600082825260208201905092915050565b600082825260208201905092915050565b600082825260208201905092915050565b600082825260208201905092915050565b6000611ba082611c29565b9150611bab83611c29565b9250827fffffffffffffffffffffffffffffffffffffffffffffffffffffffffffffffff03821115611be057611bdf611cf0565b5b828201905092915050565b6000611bf682611c09565b9050919050565b60008115159050919050565b600073ffffffffffffffffffffffffffffffffffffffff82169050919050565b6000819050919050565b82818337600083830152505050565b60005b83811015611c60578082015181840152602081019050611c45565b83811115611c6f576000848401525b50505050565b60006002820490506001821680611c8d57607f821691505b60208210811415611ca157611ca0611d1f565b5b50919050565b6000611cb282611c29565b91507fffffffffffffffffffffffffffffffffffffffffffffffffffffffffffffffff821415611ce557611ce4611cf0565b5b600182019050919050565b7f4e487b7100000000000000000000000000000000000000000000000000000000600052601160045260246000fd5b7f4e487b7100000000000000000000000000000000000000000000000000000000600052602260045260246000fd5b7f4e487b7100000000000000000000000000000000000000000000000000000000600052604160045260246000fd5b6000601f19601f8301169050919050565b611d9781611beb565b8114611da257600080fd5b50565b611dae81611c29565b8114611db957600080fd5b5056fea2646970667358221220527a1b5dc1ffb8d01275782d97edf144c18582646395f430f88a6cf78167b75f64736f6c63430008000033",
  "linkReferences": {},
  "deployedLinkReferences": {}
}